:100000000C942A000C9447000C9447000C94470071
:100010000C9447000C9447000C9447000C94470044
:100020000C9447000C9447000C9447000C94470034
:100030000C9447000C9447000C9447000C94470024
:100040000C9447000C9447000C9447000C94470014
:100050000C94470011241FBECFE5D4E0DEBFCDBF16
:1000600011E0A0E6B0E0ECEFFEE102C005900D92D9
:10007000A83CB107D9F721E0A8ECB1E001C01D927E
:10008000AD3DB207E1F70E9418060C947C0F0C946A
:10009000000088B3806F88BBC29A87B38F7087BB1C
:1000A00026B3C298C29A96B3C298207F892F8295B0
:1000B0008F70822B089528B32F70982F907F922BEA
:1000C00098BBC29AC29830E1839FC0011124822B51
:1000D00088BBC29AC2980895CF93DF931F92CDB781
:1000E000DEB7C098C19A0E9449008983898188231C
:1000F000C4F3C1988FEF87BB0F90DF91CF91089524
:100100008FEF87BB87BBC098C198C298C29AC59A27
:10011000C2980E946C0088E20E945B000E946C0002
:10012000C0988EE00E945B000E946C00C09886E040
:100130000E945B000E946C000895C09890E4899F23
:10014000600D1124862F815C0E945B000E946C0070
:100150000895C09881E00E945B000E946C000895A1
:10016000C09A0E945B000E946C0008950F931F9339
:10017000CF93FC018081882359F08F01C0E00E9459
:10018000B000CF5FF801EC0FF11D80818111F7CF36
:10019000CF911F910F91089511B886E480B984E042
:1001A00086BF089584EA86BF06B607FEFDCF089590
:1001B00083B984E886BF06B607FEFDCF089584E9BB
:1001C00086BF81EE94E00197F1F700C0000008952A
:1001D00020E4829FC0011124846886BF06B607FE12
:1001E000FDCF83B10895CF93DF930E94D20080EDBD
:1001F0000E94D80080E00E94D8000E94DF000E9488
:10020000D20081ED0E94D80081E00E94E800CCEC91
:10021000D1E08A8381E00E94E800898381E00E9426
:10022000E800888381E00E94E8008E8381E00E94DC
:10023000E8008B8381E00E94E8008C8380E00E94CC
:10024000E8008D830E94DF00DF91CF9108951BB8F5
:1002500088E18AB986E880BD10BC85E089B9089537
:100260008CB95D9BFECF0895CF93DF93EC0188811D
:10027000882331F021960E94300189918111FBCFB2
:10028000DF91CF91089585EB90E00E94340187E8DB
:1002900093E10197F1F700C000008AEB90E00E9423
:1002A000340187E893E10197F1F700C0000088EC82
:1002B00090E00E94340187E893E10197F1F700C0D4
:1002C00000000895EF92FF920F931F93CF93DF9357
:1002D000CDB7DEB7C45BD1090FB6F894DEBF0FBE51
:1002E000CDBF8DEE90E00E94340187EA91E6019740
:1002F000F1F700C000008E010F5F1F4F86E9F80183
:1003000011928A95E9F78091D6011F928F9380917F
:10031000CA018F938091C9018F9386E191E09F93E9
:100320008F931F930F930E94920C7E01F7E9EF0EBB
:10033000F11C8EE1F70111928A95E9F7F80101901D
:100340000020E9F7CF01801B910B01969F938F93BB
:100350008DE491E09F938F93FF92EF920E94920C15
:10036000C7010E94340183ED90E30197F1F700C0CB
:100370000000C8010E943401E7EAF1E63197F1F785
:1003800000C000000FB6F894DEBF0FBECDBFCC5446
:10039000DF4F0FB6F894DEBF0FBECDBFDF91CF9118
:1003A0001F910F91FF90EF9008951ABA87E886B9D0
:1003B00080E487B908958770806487B9369A349B42
:1003C000FECF349A89EF90E00197F1F700C000006A
:1003D00084B195B1089580E00E94DB01BC01990FC2
:1003E000880B990B0E94710B23E23BED49EF5EE312
:1003F0000E94D50B0E94390B7093CA016093C9010A
:1004000081EE94E00197F1F700C000008091610057
:1004100090E02091C9013091CA012817390714F0E2
:10042000AE980895AE9A0895A29AAA9887E893E1A3
:100430000197F1F700C00000AA9A0895A2989A992E
:10044000FECF9A9BFECF9A99FECF089588E090E068
:100450009A9BFECF2AE02A95F1F79A9B07C020913C
:10046000C801220F21602093C80105C02091C80156
:10047000220F2093C8019A99FECF019749F78091E6
:10048000C80108950E9414020E941E020E942602C2
:100490008093D6010E9426028093D3010E942602F7
:1004A0008093D5010E9426028093D7010E942602E4
:1004B0008093D4019091D60180916000981710F03C
:1004C000AF980895AF9A089582958F70282F30E0E5
:1004D000C901880F991F220F331F220F331F220FCC
:1004E000331F820F931F6F70860F911D08956AE06E
:1004F00070E00E946A0C90E1699F800D11240895BC
:100500002F923F924F925F926F927F928F929F9223
:10051000AF92CF92EF92FF920F931F93CF93DF93FF
:1005200000D000D01F92CDB7DEB7162F842F642FD6
:100530000E9464023C01612F812F0E9464022C0101
:100540000E94A90011E00F2EFDE52F2EF1E03F2EB5
:10055000F02DCE0101964C017F926F923F922F9227
:100560009F928F920E94920C61E081E00E949D0018
:10057000C4010E94B60063E081E00E949D008AE30E
:100580000E94B0005F924F923F922F929F928F9263
:100590000E94920C64E081E00E949D00C4010E94D0
:1005A000B60067E081E00E949D0081E691E00E9434
:1005B000B600612F82E00E949D0084E691E00E94D7
:1005C000B6000FB6F894DEBF0FBECDBF869923C02C
:1005D000113041F4F7E16F1671048CF42FEF621AB9
:1005E000720A12C0143041F48BE34816510454F4DB
:1005F0009FEF491A590A08C0173030F044C0612CE7
:10060000712C02C0412C512CEBE7F2E93197F1F744
:1006100000C0000028C0859926C0113039F461144B
:10062000710481F0F1E06F1A710817C0143039F4C9
:100630004114510469F021E0421A51080EC01730EC
:1006400060F021C00F2EF7E16F2E712CF02D05C048
:100650000F2EFBE34F2E512CF02D8BE792E90197E3
:10066000F1F700C00000849907C0173011F01D5F3A
:1006700001C011E00E94A900EBE7F2E93197F1F720
:1006800000C0000069CFC3010E947702182FC20189
:100690000E947702F82E212C312C0F2EFCEC8F2E8D
:1006A000F1E09F2EF02D0E94D20080ED0E94D80034
:1006B00080E00E94D8000E94DF000E94D20081EDFD
:1006C0000E94D80081E00E94E800F401828381E06A
:1006D0000E94E800F401818381E00E94E800F401B7
:1006E000808381E00E94E800F401868381E00E941B
:1006F000E800F401838381E00E94E800F401848330
:1007000080E00E94E800F40185830E94DF00F4018C
:100710002081121357C08181F81254C00E94A90091
:100720007F926F928DE591E09F938F9381E090E0AF
:100730008C0F9D1F9F938F930E94920C61E081E02C
:100740000E949D00CE0101960E94B60063E081E008
:100750000E949D008AE30E94B0005F924F92EDE5F7
:10076000F1E0FF93EF9381E090E08C0F9D1F9F934A
:100770008F930E94920C64E081E00E949D00CE0164
:1007800001960E94B60061E082E00E949D0087E62B
:1007900091E00E94B600E7EAF1E63197F1F700C078
:1007A00000000E94A90087EA91E60197F1F700C0D6
:1007B00000009FEF291A390A0FB6F894DEBF0FBE6A
:1007C000CDBF0DC0F401A580C480E38006814181C6
:1007D00062818091C9019091CA010E94D104F4E123
:1007E0002F16310409F05FCF0E94A900ECECF1E074
:1007F000A580C480E380068120814181628180914F
:10080000C9019091CA010E94D1040F900F900F90DE
:100810000F900F90DF91CF911F910F91FF90EF906C
:10082000CF90AF909F908F907F906F905F904F9000
:100830003F902F9008959F92AF92BF92CF92DF92F8
:10084000EF92FF920F931F93CF93DF93CDB7DEB755
:10085000E7970FB6F894DEBF0FBECDBFD82EB62EE9
:10086000A42E922E87E3E2E6F0E0DE0111960190DD
:100870000D928A95E1F710E00F2EFBE0FF2EF02D90
:1008800065E081E00E949D008EE691E00E94B60046
:1008900061E082E00E949D0088E791E00E94B6003E
:1008A00060E182E00E949D008AE791E00E94B6002C
:1008B00065E082E00E949D0081E090E08C0F9D1F2A
:1008C000F19E800D911D11240E94B60086990EC0E4
:1008D000112311F0115001C014E083E294EF01974D
:1008E000F1F700C000000E94A90042C085990EC027
:1008F000143011F01F5F01C010E083E294EF019704
:10090000F1F700C000000E94A90032C0849930C0F5
:100910008FE493EC0197F1F700C000000E94A9005A
:100920001230C9F028F4112341F0113069F027C0CA
:100930001330C1F01430C9F022C0292D4A2D6B2D7F
:100940008D2D0E9472071BC0292D4A2D6B2D8D2DD8
:100950000E940A0914C0292D4A2D6B2D8D2D0E944D
:1009600080020DC00E9472060AC00E94F00607C0F5
:100970008BE792E90197F1F700C0000081CFE7967D
:100980000FB6F894DEBF0FBECDBFDF91CF911F91A0
:100990000F91FF90EF90DF90CF90BF90AF909F901E
:1009A00008952F923F924F925F926F927F928F9213
:1009B0009F92AF92BF92CF92DF92EF92FF920F93EE
:1009C0001F93CF93DF93CDB7DEB76C970FB6F89434
:1009D000DEBF0FBECDBF482E392EF62ED42EB22E3E
:1009E000502E2E2CEC2C8CE1E9E9F0E0DE01119682
:1009F00001900D928A95E1F71F922F930F2EFCE73D
:100A00008F2EF1E09F2EF02D9F928F9208ED11E036
:100A10001F930F930E94920C61E081E00E949D0061
:100A2000C8010E94B60063E081E00E949D0086EB51
:100A300091E00E94B6001F92DF929F928F921F93C7
:100A40000F930E94920C64E081E00E949D00C80117
:100A50000E94B60066E081E00E949D008AE30E9449
:100A6000B0001F92FF929F928F921F930F930E944C
:100A7000920C67E081E00E949D00C8010E94B600D0
:100A80006AE081E00E949D0081E090E08C0F9D1F54
:100A900024E0529E800D911D11240E94B6006EE04C
:100AA00081E00E949D008091D6011F928F930F2EAE
:100AB000FDE56F2EF1E07F2EF02D7F926F921F9358
:100AC0000F930E94920CC8010E94B60060E181E081
:100AD0000E949D0085E20E94B0001F922F929F927B
:100AE0008F921F930F930E94920C61E082E00E940C
:100AF0009D00C8010E94B60063E082E00E949D0054
:100B000080E891E00E94B6001F92CF929F928F9250
:100B10001F930F930E94920C0FB6F894DEBF0FBE86
:100B2000CDBF64E082E00E949D00C8010E94B60033
:100B300066E082E00E949D0080E891E00E94B6009D
:100B400067E082E00E949D0082E891E00E94B6008A
:100B50001F92AF929F928F921F930F930E94920CBD
:100B600069E082E00E949D00C8010E94B6003F92A9
:100B70004F927F926F921F930F930E94920C6CE0A2
:100B800082E00E949D00C8010E94B6006EE082E0F3
:100B90000E949D008FED0E94B0006FE082E00E94F5
:100BA0009D0085E891E00E94B6001092CB010FB63F
:100BB000F894DEBF0FBECDBF849914C002C08499E3
:100BC00011C083E294EF0197F1F700C000000E948A
:100BD000A900CA2C022D252D4B2D6D2D8F2D0E9485
:100BE0001B040DC089EF90E00197F1F700C00000F1
:100BF0008091CB018F5F8093CB018C3300F36C9697
:100C00000FB6F894DEBF0FBECDBFDF91CF911F911D
:100C10000F91FF90EF90DF90CF90BF90AF909F909B
:100C20008F907F906F905F904F903F902F9008959E
:100C300084B3806C84BB11BA80EF82BB0E94D50163
:100C40000E9480000E94A90061E081E00E949D0056
:100C500087E891E00E94B60061E082E00E949D007A
:100C600084E991E00E94B6002FE78AE196E02150E6
:100C700080409040E1F700C000000E94A9000E945F
:100C8000CC000E94270187EA91E60197F1F700C0A6
:100C900000000E94430187EA91E60197F1F700C046
:100CA0000000CCECD1E00E9442020E94EB010E94C5
:100CB000F300AD80CC80EB800E81288149816A8170
:100CC0008091C9019091CA010E94D1040E946201E1
:100CD0009FE926E881E0915020408040E1F700C084
:100CE0000000E1CFAF92CF92EF92FF920F931F934C
:100CF000CF93DF930E94A9000DE511E0C8EDD1E08C
:100D00000F2EF3E2FF2EF02D02C08093610061E010
:100D100081E00E949D0081EA91E00E94B60064E0BB
:100D200082E00E949D0082EB91E00E94B6008091DB
:100D300061001F928F931F930F93DF93CF930E94B5
:100D4000920C6AE082E00E949D00CE010E94B600F3
:100D50000F900F900F900F900F900F9086990AC0F0
:100D6000869BFECF809161008F5F8D3370F2F09291
:100D70006100CDCF85990DC0859BFECF809161002C
:100D800081508A3018F080936100C1CFF0926100E9
:100D9000BECF8499BCCF9FE32DE083E091502040EB
:100DA0008040E1F700C000000E94F3000E94A9000B
:100DB000ECECF1E0A580C480E380068120814181D4
:100DC00062818091C9019091CA010E94D104DF9192
:100DD000CF911F910F91FF90EF90CF90AF9008951A
:100DE000AF92CF92EF92FF920F931F93CF93DF9327
:100DF0000E94A9000DE511E0C8EDD1E00F2EF2E34D
:100E0000FF2EF02D0F2EFCE3EF2EF02D02C080936D
:100E1000600061E081E00E949D0088EB91E00E940B
:100E2000B60064E082E00E949D0082EB91E00E94A7
:100E3000B600809160001F928F931F930F93DF93F2
:100E4000CF930E94920C6AE082E00E949D00CE0146
:100E50000E94B6000F900F900F900F900F900F9080
:100E600086990AC0869BFECF809160008F5F843692
:100E700070F2F0926000CDCF85990DC0859BFECFBA
:100E80008091600081508E3118F080936000C1CF56
:100E9000E0926000BECF8499BCCF9FE32DE083E059
:100EA000915020408040E1F700C000000E94F30014
:100EB0000E94A900ECECF1E0A580C480E3800681EB
:100EC0002081418162818091C9019091CA010E9473
:100ED000D104DF91CF911F910F91FF90EF90CF90B0
:100EE000AF9008957F928F929F92AF92BF92CF92D0
:100EF000DF92EF92FF920F931F93CF93DF9300D077
:100F000000D01F92CDB7DEB7182F062F842F642F85
:100F10000E9464026C01602F802F0E9464025C01B9
:100F2000612F812F0E9464024C010E94A900772446
:100F300073940F2EFDE5EF2EF1E0FF2EF02D8E01C4
:100F40000F5F1F4FDF92CF92FF92EF921F930F938D
:100F50000E94920C61E081E00E949D00C8010E9405
:100F6000B60063E081E00E949D008AE30E94B00029
:100F7000BF92AF92FF92EF921F930F930E94920C39
:100F800064E081E00E949D00C8010E94B60066E016
:100F900081E00E949D008AE30E94B0009F928F92A0
:100FA000FF92EF921F930F930E94920C67E081E0F3
:100FB0000E949D00C8010E94B6006AE081E00E9484
:100FC0009D0081E691E00E94B600672D82E00E94BC
:100FD0009D0084E691E00E94B6000FB6F894DEBF53
:100FE0000FBECDBF869934C091E0791208C0E7E109
:100FF000CE16D104F4F4FFEFCF1ADF0A22C084E04A
:10100000781208C09BE3A916B104B1F0EFEFAE1A55
:10101000BE0A17C0F7E07F1208C08BE38816910460
:1010200071F09FEF891A990A0CC0EAE07E1209C09C
:101030005EC0C12CD12C05C0A12CB12C02C0812CCA
:10104000912C8BE792E90197F1F700C0000048C0AE
:1010500085993AC091E0791207C0C114D104E1F03A
:10106000E1E0CE1AD10829C0F4E07F1207C0A11434
:10107000B104C1F081E0A81AB1081FC097E079124D
:1010800007C081149104A1F0E1E08E1A910815C007
:10109000FAE07F1212C02BC00F2EF7E1CF2ED12C19
:1010A000F02D0BC00F2EFBE3AF2EB12CF02D05C0A1
:1010B0000F2EFBE38F2E912CF02D8BE792E90197F9
:1010C000F1F700C000000CC084990AC099E09715A0
:1010D00018F0E3E07E0E02C0772473940E94A9000A
:1010E0008BE792E90197F1F700C000002BCFC60112
:1010F0000E947702F82EC5010E947702082FC401D2
:101100000E947702182F0E94D20080ED0E94D80022
:1011100080E00E94D8000E94DF000E94D20081ED92
:101120000E94D80081E00E94E8000F2EFCEC8F2E78
:10113000F1E09F2EF02DF401828381E00E94E8000F
:10114000F401818381E00E94E800F401808381E062
:101150000E94E800F401868381E00E94E800F40127
:10116000838381E00E94E800F401848380E00E9490
:10117000E800F40185830E94DF00F401F08201831E
:1011800012830E94D20080ED0E94D80080E00E946D
:10119000D800F40182810E94D800F40181810E946C
:1011A000D800F40180810E94D800F40186810E9459
:1011B000D800F40183810E94D800F40184810E9448
:1011C000D800F40185810E94D8000E94DF000E94AF
:1011D000A900F401A580C480E380068120814181BB
:1011E00062818091C9019091CA010E94D1040F903F
:1011F0000F900F900F900F90DF91CF911F910F9153
:10120000FF90EF90DF90CF90BF90AF909F908F9026
:101210007F9008955F926F927F928F929F92AF928C
:10122000BF92CF92DF92EF92FF920F931F93CF93D3
:10123000DF93CDB7DEB7A1970FB6F894DEBF0FBE30
:10124000CDBF822F9CE1E9E9F0E0DE011696019026
:101250000D929A95E1F7622F0E9464023C01602F83
:10126000802F0E9464025C016E2D8E2D0E9464020C
:101270004C016C2D8C2D0E9464026C010E94A9000F
:10128000552453940F2EFDE5EF2EF1E0FF2EF02DA7
:101290008E010F5F1F4FBF92AF92FF92EF921F938D
:1012A0000F930E94920C61E081E00E949D00C801B2
:1012B0000E94B60063E081E00E949D008FE20E94E0
:1012C000B0009F928F92FF92EF921F930F930E9414
:1012D000920C64E081E00E949D00C8010E94B6006B
:1012E00066E081E00E949D008FE20E94B000DF92E4
:1012F000CF92FF92EF921F930F930E94920C67E0A0
:1013000081E00E949D00C8010E94B6006AE081E071
:101310000E949D00C301880F991F880F991F26E026
:1013200030E02C0F3D1F820F931F0E94B6006EE02D
:1013300081E00E949D0081E691E00E94B600652D4B
:1013400082E00E949D0084E691E00E94B6000FB604
:10135000F894DEBF0FBECDBF869947C091E0591209
:1013600008C0EFE1AE16B10449F1FFEFAF1ABF0AB2
:1013700035C024E0521208C03CE08316910411F1FC
:101380008FEF881A980A2AC097E0591208C0E3E63E
:10139000CE16D104D9F0FFEFCF1ADF0A1FC02AE022
:1013A000521208C036E063167104B4F48FEF681A65
:1013B000780A14C09EE0591211C081C0AA24A394D7
:1013C000B12C0CC088248394912C08C00F2EFBE014
:1013D000CF2ED12CF02D02C0612C712CEBE7F2E95D
:1013E0003197F1F700C0000063C085994DC0F1E06E
:1013F0005F1208C021E0A216B10441F131E0A31A46
:10140000B1083BC084E0581208C091E089169104ED
:1014100019F1E1E08E1A910830C0F7E05F1208C0C0
:101420002BE0C216D104F1F031E0C31AD10825C077
:101430008AE0581207C061147104D1F091E0691A72
:1014400071081BC0EEE05E1218C039C00F2EFFE11C
:10145000AF2EB12CF02D11C00F2EFCE08F2E912C51
:10146000F02D0BC00F2EF3E6CF2ED12CF02D05C0A2
:101470000F2EF6E06F2E712CF02D8BE792E901977D
:10148000F1F700C0000014C0849912C09EE0591604
:1014900031F0EAE05E1631F0F3E05F0E07C055244C
:1014A000539404C00F2EFEE05F2EF02D0E94A90081
:1014B0008BE792E90197F1F700C00000ECCEC40180
:1014C0008D7F21E08430910509F020E0211106C0D4
:1014D00021E0099709F020E0222351F09FE1A916AD
:1014E000B10461F50F2EFEE1AF2EB12CF02D26C018
:1014F000E2E08E16910411F5C5014D970397F0F4C3
:10150000FCE0CF16D10479F080E190E08C159D05C8
:1015100081F0049684369105C9F70F2EFCE1AF2EB9
:10152000B12CF02D0BC00F2EFDE1AF2EB12CF02D04
:1015300005C00F2EFDE1AF2EB12CF02DC3010E948E
:101540007702E82EC5010E947702F82EC4010E949E
:101550007702082FC6010E947702182F0E94D2003E
:1015600080ED0E94D80080E00E94D8000E94DF0039
:101570000E94D20081ED0E94D80081E00E94E80024
:101580000F2EFCEC8F2EF1E09F2EF02DF4018283C4
:1015900081E00E94E800F401818381E00E94E8007C
:1015A000F401808381E00E94E800F401868381E0F9
:1015B0000E94E800F401838381E00E94E800F401C6
:1015C000848380E00E94E800F40185830E94DF00AC
:1015D000F401E682F382048315830E94D20080ED39
:1015E0000E94D80080E00E94D800F40182810E940D
:1015F000D800F40181810E94D800F40180810E940A
:10160000D800F40186810E94D800F40183810E94F1
:10161000D800F40184810E94D800F40185810E94E1
:10162000D8000E94DF000E94A900F401A580C480B8
:10163000E38006812081418162818091C90190917E
:10164000CA010E94D104A1960FB6F894DEBF0FBE66
:10165000CDBFDF91CF911F910F91FF90EF90DF9061
:10166000CF90BF90AF909F908F907F906F905F9042
:1016700008950E94400B6894B1110C94CF0B08950B
:101680000E94B40B88F09F5798F0B92F9927B75153
:10169000B0F0E1F0660F771F881F991F1AF0BA9516
:1016A000C9F714C0B13091F00E94CE0BB1E008959B
:1016B0000C94CE0B672F782F8827B85F39F0B93F8D
:1016C000CCF3869577956795B395D9F73EF49095C9
:1016D0008095709561957F4F8F4F9F4F0895E89447
:1016E00009C097FB3EF490958095709561957F4F6A
:1016F0008F4F9F4F9923A9F0F92F96E9BB27939518
:10170000F695879577956795B795F111F8CFFAF427
:10171000BB0F11F460FF1BC06F5F7F4F8F4F9F4F58
:1017200016C0882311F096E911C0772321F09EE8B6
:10173000872F762F05C0662371F096E8862F70E01C
:1017400060E02AF09A95660F771F881FDAF7880FF6
:101750009695879597F9089557FD9058440F551F12
:1017600059F05F3F71F04795880F97FB991F61F023
:101770009F3F79F087950895121613061406551F9A
:10178000F2CF4695F1DF08C0161617061806991F06
:10179000F1CF86957105610508940895E894BB27FB
:1017A00066277727CB0197F908950E94E80B0C94E0
:1017B000590C0E944B0C38F00E94520C20F09523DB
:1017C00011F00C94420C0C94480C11240C94CF0B87
:1017D0000E94AC0B70F3959FC1F3950F50E0551F1D
:1017E000629FF001729FBB27F00DB11D639FAA2776
:1017F000F00DB11DAA1F649F6627B00DA11D661FC5
:10180000829F2227B00DA11D621F739FB00DA11DE5
:10181000621F839FA00D611D221F749F3327A00D9F
:10182000611D231F849F600D211D822F762F6A2F3B
:1018300011249F5750409AF0F1F088234AF0EE0FA0
:10184000FF1FBB1F661F771F881F91505040A9F7CD
:101850009E3F510580F00C94420C0C94CF0B5F3FDF
:10186000E4F3983ED4F3869577956795B795F79509
:10187000E7959F5FC1F7FE2B880F911D9695879581
:1018800097F9089597F99F6780E870E060E0089500
:101890009FEF80EC089500240A9416161706180688
:1018A0000906089500240A94121613061406050664
:1018B0000895092E0394000C11F4882352F0BB0FF5
:1018C00040F4BF2B11F460FF04C06F5F7F4F8F4F58
:1018D0009F4F089597FB072E16F4009407D077FDCD
:1018E00009D00E947E0C07FC05D03EF490958195AE
:1018F0009F4F0895709561957F4F0895AA1BBB1B5C
:1019000051E107C0AA1FBB1FA617B70710F0A61BFF
:10191000B70B881F991F5A95A9F780959095BC0120
:10192000CD010895AEE0B0E0E8E9FCE00C94530F7F
:101930000D891E8986E08C831A8309838FEF9FE7C8
:101940009E838D83AE01475E5F4F6F89788DCE0198
:1019500001960E94B40CEF81F885E00FF11F108210
:101960002E96E4E00C946F0FABE0B0E0EAEBFCE005
:101970000C94450F6C017B018A01FC0117821682D1
:10198000838181FFCCC1CE0101963C01F601938198
:10199000F70193FD859193FF81917F01882309F4DD
:1019A000BAC1853239F493FD859193FF81917F010E
:1019B000853229F4B60190E00E94AB0EE7CF912C5E
:1019C000212C312CFFE1F315D8F08B3279F038F46B
:1019D000803279F08332A1F4232D20611DC08D3235
:1019E00061F0803369F4232D216016C0832D82605D
:1019F000382EE32DE4603E2E2AC0F32DF8601DC082
:101A000037FC2DC020ED280F2A3040F08E32B9F47B
:101A100036FC81C1232D2064322E19C036FE06C04B
:101A20008AE0989E200D1124922E11C0EAE02E9E8D
:101A3000200D1124222EF32DF0623F2E08C08C368B
:101A400021F4832D8068382E02C0883641F4F701D6
:101A500093FD859193FF81917F018111B3CF982FE1
:101A60009F7D9554933028F40C5F1F4F9FE399831B
:101A70000DC0833631F0833771F0833509F059C0DA
:101A800021C0F801808189830E5F1F4F88248394D1
:101A9000912C530113C02801F2E04F0E511CF801A4
:101AA000A080B18036FE03C0692D70E002C06FEFE8
:101AB0007FEFC5010E94A00E4C018201F32DFF773C
:101AC0003F2E16C0280122E0420E511CF801A080D2
:101AD000B18036FE03C0692D70E002C06FEF7FEF6A
:101AE000C5010E94950E4C01F32DF0683F2E820136
:101AF00033FC1BC0822D90E088169906B0F4B60125
:101B000080E290E00E94AB0E2A94F4CFF50137FCFE
:101B1000859137FE81915F01B60190E00E94AB0E86
:101B200021102A9421E0821A91088114910471F7FE
:101B3000E8C0843611F0893641F5F80137FE07C058
:101B400060817181828193810C5F1F4F08C0608129
:101B50007181072E000C880B990B0E5F1F4FF32D20
:101B6000FF763F2E97FF09C09095809570956195FF
:101B70007F4F8F4F9F4FF0683F2E2AE030E0A30148
:101B80000E94E70E882E861845C0853731F4232D34
:101B90002F7EB22E2AE030E025C0932D997FB92EFA
:101BA0008F36C1F018F4883579F0B5C0803719F058
:101BB000883721F0B0C0E92FE061BE2EB4FE0DC021
:101BC000FB2DF460BF2E09C034FE0AC0292F266009
:101BD000B22E06C028E030E005C020E130E002C0AF
:101BE00020E132E0F801B7FE07C060817181828197
:101BF00093810C5F1F4F06C06081718180E090E08F
:101C00000E5F1F4FA3010E94E70E882E8618FB2D42
:101C1000FF773F2E36FE0DC0232D2E7FA22E891476
:101C200058F434FE0BC032FC09C0832D8E7EA82EE2
:101C300005C0B82CA32C03C0B82C01C0B92CA4FE3D
:101C40000FC0FE01E80DF11D8081803321F49A2D33
:101C5000997EA92E09C0A2FE06C0B394B39404C015
:101C60008A2D867809F0B394A3FC11C0A0FE06C0AB
:101C7000B21488F4280C922C9B180EC0B21460F495
:101C8000B60180E290E00E94AB0EB394F7CFB2149D
:101C900018F42B1802C0982C212CA4FE10C0B601F9
:101CA00080E390E00E94AB0EA2FE17C0A1FC03C02F
:101CB00088E790E002C088E590E0B6010CC08A2D6C
:101CC000867859F0A1FE02C08BE201C080E2A7FC39
:101CD0008DE2B60190E00E94AB0E891438F4B60193
:101CE00080E390E00E94AB0E9A94F7CF8A94F301C0
:101CF000E80DF11D8081B60190E00E94AB0E8110CD
:101D0000F5CF222009F442CEB60180E290E00E9495
:101D1000AB0E2A94F6CFF6018681978102C08FEF31
:101D20009FEF2B96E2E10C94610FFC01059061504E
:101D300070400110D8F7809590958E0F9F1F0895E1
:101D4000FC016150704001900110D8F7809590958A
:101D50008E0F9F1F08950F931F93CF93DF93FB0167
:101D6000238121FD03C08FEF9FEF2CC022FF16C0FF
:101D700046815781248135814217530744F4A0815D
:101D8000B1819D012F5F3F4F318320838C9326814A
:101D900037812F5F3F4F3783268314C08B01EC01BF
:101DA000FB010084F185E02D0995892BE1F6D8012E
:101DB00016968D919C911797019617969C938E93EA
:101DC0001697CE01DF91CF911F910F910895FA01DF
:101DD000AA27283051F1203181F1E8946F936E7F6A
:101DE0006E5F7F4F8F4F9F4FAF4FB1E03ED0B4E05B
:101DF0003CD0670F781F891F9A1FA11D680F791F9C
:101E00008A1F911DA11D6A0F711D811D911DA11DAC
:101E100020D009F468943F912AE0269F11243019BC
:101E2000305D3193DEF6CF010895462F4770405D57
:101E30004193B3E00FD0C9F7F6CF462F4F70405D06
:101E40004A3318F0495D31FD4052419302D0A9F761
:101E5000EACFB4E0A6959795879577956795BA955B
:101E6000C9F700976105710508959B01AC010A2E21
:101E700006945795479537952795BA95C9F7620FF8
:101E8000731F841F951FA01D08952F923F924F929C
:101E90005F926F927F928F929F92AF92BF92CF92FA
:101EA000DF92EF92FF920F931F93CF93DF93CDB703
:101EB000DEB7CA1BDB0B0FB6F894DEBF0FBECDBF7B
:101EC00009942A88398848885F846E847D848C844C
:101ED0009B84AA84B984C884DF80EE80FD800C8155
:101EE0001B81AA81B981CE0FD11D0FB6F894DEBF38
:0C1EF0000FBECDBFED010895F894FFCFA8
:101EFC0050195365742054696D6500000053657466
:101F0C002044617465000000416C61726D2054695D
:101F1C006D65005365742054656D70000000536549
:101F2C00742048756D690000005341540053554EA0
:101F3C00004D4F4E005455450057454400544855EC
:101F4C00004652490041540D0A0041542B43574D51
:101F5C004F44453D310D0A0041542B43574A4150E3
:101F6C003D2254502D4C494E4B5F36423530222C7D
:101F7C00223431363333343635220D0A0041542B9A
:101F8C0043495053544152543D22544350222C2225
:101F9C003138342E3130362E3135332E313439221E
:101FAC002C38300D0A00474554202F75706461742D
:101FBC00653F6B65793D53494D30504F444F303040
:101FCC003245465A5431266669656C64313D256448
:101FDC00266669656C64323D25640D0A0041542BFC
:101FEC0043495053454E443D25640D0A0025326447
:101FFC00004F4B005E5E00416C61726D21004D61C3
:10200C00696E204D656E75003C003E0025327800EF
:10201C002F0032300043004275692051756F6320E8
:10202C00416E680042544C2047686570204E6F69C1
:10203C00005365742054656D7065726174757265BA
:10204C0020004D4158203A005365742048756D6945
:08205C00646974792020000082
:00000001FF
